{
  "_format": "hh-sol-artifact-1",
  "contractName": "barToken",
  "sourceName": "contracts/barToken.sol",
  "abi": [
    {
      "anonymous": false,
      "inputs": [
        {
          "indexed": true,
          "internalType": "address",
          "name": "owner",
          "type": "address"
        },
        {
          "indexed": true,
          "internalType": "address",
          "name": "spender",
          "type": "address"
        },
        {
          "indexed": false,
          "internalType": "uint256",
          "name": "value",
          "type": "uint256"
        }
      ],
      "name": "Approval",
      "type": "event"
    },
    {
      "anonymous": false,
      "inputs": [
        {
          "indexed": true,
          "internalType": "address",
          "name": "sender",
          "type": "address"
        },
        {
          "indexed": true,
          "internalType": "address",
          "name": "recipient",
          "type": "address"
        },
        {
          "indexed": false,
          "internalType": "uint256",
          "name": "amount",
          "type": "uint256"
        }
      ],
      "name": "Transfer",
      "type": "event"
    },
    {
      "inputs": [
        {
          "internalType": "address",
          "name": "",
          "type": "address"
        },
        {
          "internalType": "address",
          "name": "",
          "type": "address"
        }
      ],
      "name": "allowance",
      "outputs": [
        {
          "internalType": "uint256",
          "name": "",
          "type": "uint256"
        }
      ],
      "stateMutability": "view",
      "type": "function"
    },
    {
      "inputs": [
        {
          "internalType": "address",
          "name": "spender",
          "type": "address"
        },
        {
          "internalType": "uint256",
          "name": "amount",
          "type": "uint256"
        }
      ],
      "name": "approve",
      "outputs": [
        {
          "internalType": "bool",
          "name": "",
          "type": "bool"
        }
      ],
      "stateMutability": "nonpayable",
      "type": "function"
    },
    {
      "inputs": [
        {
          "internalType": "address",
          "name": "",
          "type": "address"
        }
      ],
      "name": "balanceOf",
      "outputs": [
        {
          "internalType": "uint256",
          "name": "",
          "type": "uint256"
        }
      ],
      "stateMutability": "view",
      "type": "function"
    },
    {
      "inputs": [
        {
          "internalType": "uint256",
          "name": "amount",
          "type": "uint256"
        }
      ],
      "name": "burn",
      "outputs": [],
      "stateMutability": "nonpayable",
      "type": "function"
    },
    {
      "inputs": [],
      "name": "decimale",
      "outputs": [
        {
          "internalType": "uint8",
          "name": "",
          "type": "uint8"
        }
      ],
      "stateMutability": "view",
      "type": "function"
    },
    {
      "inputs": [
        {
          "internalType": "uint256",
          "name": "amount",
          "type": "uint256"
        }
      ],
      "name": "mint",
      "outputs": [],
      "stateMutability": "nonpayable",
      "type": "function"
    },
    {
      "inputs": [],
      "name": "name",
      "outputs": [
        {
          "internalType": "string",
          "name": "",
          "type": "string"
        }
      ],
      "stateMutability": "view",
      "type": "function"
    },
    {
      "inputs": [],
      "name": "symbol",
      "outputs": [
        {
          "internalType": "string",
          "name": "",
          "type": "string"
        }
      ],
      "stateMutability": "view",
      "type": "function"
    },
    {
      "inputs": [],
      "name": "totalSupply",
      "outputs": [
        {
          "internalType": "uint256",
          "name": "",
          "type": "uint256"
        }
      ],
      "stateMutability": "view",
      "type": "function"
    },
    {
      "inputs": [
        {
          "internalType": "address",
          "name": "recipient",
          "type": "address"
        },
        {
          "internalType": "uint256",
          "name": "amount",
          "type": "uint256"
        }
      ],
      "name": "transfer",
      "outputs": [
        {
          "internalType": "bool",
          "name": "",
          "type": "bool"
        }
      ],
      "stateMutability": "payable",
      "type": "function"
    },
    {
      "inputs": [
        {
          "internalType": "address",
          "name": "sender",
          "type": "address"
        },
        {
          "internalType": "address",
          "name": "recipient",
          "type": "address"
        },
        {
          "internalType": "uint256",
          "name": "amount",
          "type": "uint256"
        }
      ],
      "name": "transferFrom",
      "outputs": [
        {
          "internalType": "bool",
          "name": "",
          "type": "bool"
        }
      ],
      "stateMutability": "nonpayable",
      "type": "function"
    }
  ],
  "bytecode": "0x60806040526040518060400160405280600881526020017f626172546f6b656e0000000000000000000000000000000000000000000000008152506003908051906020019062000051929190620000d0565b506040518060400160405280600381526020017f4241520000000000000000000000000000000000000000000000000000000000815250600490805190602001906200009f929190620000d0565b506012600560006101000a81548160ff021916908360ff160217905550348015620000c957600080fd5b50620001e5565b828054620000de9062000180565b90600052602060002090601f0160209004810192826200010257600085556200014e565b82601f106200011d57805160ff19168380011785556200014e565b828001600101855582156200014e579182015b828111156200014d57825182559160200191906001019062000130565b5b5090506200015d919062000161565b5090565b5b808211156200017c57600081600090555060010162000162565b5090565b600060028204905060018216806200019957607f821691505b60208210811415620001b057620001af620001b6565b5b50919050565b7f4e487b7100000000000000000000000000000000000000000000000000000000600052602260045260246000fd5b610ed480620001f56000396000f3fe60806040526004361061009c5760003560e01c806342966c681161006457806342966c681461019c57806370a08231146101c557806395d89b4114610202578063a0712d681461022d578063a9059cbb14610256578063dd62ed3e146102865761009c565b806306fdde03146100a1578063095ea7b3146100cc57806318160ddd1461010957806323b872dd146101345780632de3531e14610171575b600080fd5b3480156100ad57600080fd5b506100b66102c3565b6040516100c39190610c29565b60405180910390f35b3480156100d857600080fd5b506100f360048036038101906100ee9190610b03565b610351565b6040516101009190610c0e565b60405180910390f35b34801561011557600080fd5b5061011e610443565b60405161012b9190610c6b565b60405180910390f35b34801561014057600080fd5b5061015b60048036038101906101569190610ab4565b610449565b6040516101689190610c0e565b60405180910390f35b34801561017d57600080fd5b506101866105fa565b6040516101939190610c86565b60405180910390f35b3480156101a857600080fd5b506101c360048036038101906101be9190610b3f565b61060d565b005b3480156101d157600080fd5b506101ec60048036038101906101e79190610a4f565b6106e4565b6040516101f99190610c6b565b60405180910390f35b34801561020e57600080fd5b506102176106fc565b6040516102249190610c29565b60405180910390f35b34801561023957600080fd5b50610254600480360381019061024f9190610b3f565b61078a565b005b610270600480360381019061026b9190610b03565b610861565b60405161027d9190610c0e565b60405180910390f35b34801561029257600080fd5b506102ad60048036038101906102a89190610a78565b610a00565b6040516102ba9190610c6b565b60405180910390f35b600380546102d090610dcf565b80601f01602080910402602001604051908101604052809291908181526020018280546102fc90610dcf565b80156103495780601f1061031e57610100808354040283529160200191610349565b820191906000526020600020905b81548152906001019060200180831161032c57829003601f168201915b505050505081565b600081600260003373ffffffffffffffffffffffffffffffffffffffff1673ffffffffffffffffffffffffffffffffffffffff16815260200190815260200160002060008573ffffffffffffffffffffffffffffffffffffffff1673ffffffffffffffffffffffffffffffffffffffff168152602001908152602001600020819055508273ffffffffffffffffffffffffffffffffffffffff163373ffffffffffffffffffffffffffffffffffffffff167f8c5be1e5ebec7d5bd14f71427d1e84f3dd0314c0f7b2291e5b200ac8c7c3b925846040516104319190610c6b565b60405180910390a36001905092915050565b60005481565b600081600260008673ffffffffffffffffffffffffffffffffffffffff1673ffffffffffffffffffffffffffffffffffffffff16815260200190815260200160002060003373ffffffffffffffffffffffffffffffffffffffff1673ffffffffffffffffffffffffffffffffffffffff16815260200190815260200160002060008282546104d79190610d13565b9250508190555081600160008673ffffffffffffffffffffffffffffffffffffffff1673ffffffffffffffffffffffffffffffffffffffff168152602001908152602001600020600082825461052d9190610d13565b9250508190555081600160008573ffffffffffffffffffffffffffffffffffffffff1673ffffffffffffffffffffffffffffffffffffffff16815260200190815260200160002060008282546105839190610cbd565b925050819055508273ffffffffffffffffffffffffffffffffffffffff168473ffffffffffffffffffffffffffffffffffffffff167fddf252ad1be2c89b69c2b068fc378daa952ba7f163c4a11628f55a4df523b3ef846040516105e79190610c6b565b60405180910390a3600190509392505050565b600560009054906101000a900460ff1681565b80600160003373ffffffffffffffffffffffffffffffffffffffff1673ffffffffffffffffffffffffffffffffffffffff168152602001908152602001600020600082825461065c9190610d13565b92505081905550806000808282546106749190610d13565b92505081905550600073ffffffffffffffffffffffffffffffffffffffff163373ffffffffffffffffffffffffffffffffffffffff167fddf252ad1be2c89b69c2b068fc378daa952ba7f163c4a11628f55a4df523b3ef836040516106d99190610c6b565b60405180910390a350565b60016020528060005260406000206000915090505481565b6004805461070990610dcf565b80601f016020809104026020016040519081016040528092919081815260200182805461073590610dcf565b80156107825780601f1061075757610100808354040283529160200191610782565b820191906000526020600020905b81548152906001019060200180831161076557829003601f168201915b505050505081565b80600160003373ffffffffffffffffffffffffffffffffffffffff1673ffffffffffffffffffffffffffffffffffffffff16815260200190815260200160002060008282546107d99190610cbd565b92505081905550806000808282546107f19190610cbd565b925050819055503373ffffffffffffffffffffffffffffffffffffffff16600073ffffffffffffffffffffffffffffffffffffffff167fddf252ad1be2c89b69c2b068fc378daa952ba7f163c4a11628f55a4df523b3ef836040516108569190610c6b565b60405180910390a350565b600034600160003373ffffffffffffffffffffffffffffffffffffffff1673ffffffffffffffffffffffffffffffffffffffff1681526020019081526020016000205410156108e5576040517f08c379a00000000000000000000000000000000000000000000000000000000081526004016108dc90610c4b565b60405180910390fd5b34600160003373ffffffffffffffffffffffffffffffffffffffff1673ffffffffffffffffffffffffffffffffffffffff16815260200190815260200160002060008282546109349190610d13565b9250508190555034600160008573ffffffffffffffffffffffffffffffffffffffff1673ffffffffffffffffffffffffffffffffffffffff168152602001908152602001600020600082825461098a9190610cbd565b925050819055508273ffffffffffffffffffffffffffffffffffffffff163373ffffffffffffffffffffffffffffffffffffffff167fddf252ad1be2c89b69c2b068fc378daa952ba7f163c4a11628f55a4df523b3ef846040516109ee9190610c6b565b60405180910390a36001905092915050565b6002602052816000526040600020602052806000526040600020600091509150505481565b600081359050610a3481610e70565b92915050565b600081359050610a4981610e87565b92915050565b600060208284031215610a6157600080fd5b6000610a6f84828501610a25565b91505092915050565b60008060408385031215610a8b57600080fd5b6000610a9985828601610a25565b9250506020610aaa85828601610a25565b9150509250929050565b600080600060608486031215610ac957600080fd5b6000610ad786828701610a25565b9350506020610ae886828701610a25565b9250506040610af986828701610a3a565b9150509250925092565b60008060408385031215610b1657600080fd5b6000610b2485828601610a25565b9250506020610b3585828601610a3a565b9150509250929050565b600060208284031215610b5157600080fd5b6000610b5f84828501610a3a565b91505092915050565b610b7181610d59565b82525050565b6000610b8282610ca1565b610b8c8185610cac565b9350610b9c818560208601610d9c565b610ba581610e5f565b840191505092915050565b6000610bbd601483610cac565b91507f496e73756666696369656e742062616c616e63650000000000000000000000006000830152602082019050919050565b610bf981610d85565b82525050565b610c0881610d8f565b82525050565b6000602082019050610c236000830184610b68565b92915050565b60006020820190508181036000830152610c438184610b77565b905092915050565b60006020820190508181036000830152610c6481610bb0565b9050919050565b6000602082019050610c806000830184610bf0565b92915050565b6000602082019050610c9b6000830184610bff565b92915050565b600081519050919050565b600082825260208201905092915050565b6000610cc882610d85565b9150610cd383610d85565b9250827fffffffffffffffffffffffffffffffffffffffffffffffffffffffffffffffff03821115610d0857610d07610e01565b5b828201905092915050565b6000610d1e82610d85565b9150610d2983610d85565b925082821015610d3c57610d3b610e01565b5b828203905092915050565b6000610d5282610d65565b9050919050565b60008115159050919050565b600073ffffffffffffffffffffffffffffffffffffffff82169050919050565b6000819050919050565b600060ff82169050919050565b60005b83811015610dba578082015181840152602081019050610d9f565b83811115610dc9576000848401525b50505050565b60006002820490506001821680610de757607f821691505b60208210811415610dfb57610dfa610e30565b5b50919050565b7f4e487b7100000000000000000000000000000000000000000000000000000000600052601160045260246000fd5b7f4e487b7100000000000000000000000000000000000000000000000000000000600052602260045260246000fd5b6000601f19601f8301169050919050565b610e7981610d47565b8114610e8457600080fd5b50565b610e9081610d85565b8114610e9b57600080fd5b5056fea26469706673582212201e787ef83d574cf957014f7335ec4f1367b7439671ee22c5794b1f8092165f8964736f6c63430008000033",
  "linkReferences": {},
  "deployedLinkReferences": {}
}