{
  "_format": "hh-sol-artifact-1",
  "contractName": "barExchange",
  "sourceName": "contracts/barExchange.sol",
  "abi": [
    {
      "anonymous": false,
      "inputs": [
        {
          "indexed": true,
          "internalType": "address",
          "name": "buyer",
          "type": "address"
        },
        {
          "indexed": false,
          "internalType": "address",
          "name": "token",
          "type": "address"
        },
        {
          "indexed": false,
          "internalType": "uint256",
          "name": "buyAmount",
          "type": "uint256"
        }
      ],
      "name": "TokenBought",
      "type": "event"
    },
    {
      "anonymous": false,
      "inputs": [
        {
          "indexed": true,
          "internalType": "address",
          "name": "seller",
          "type": "address"
        },
        {
          "indexed": false,
          "internalType": "address",
          "name": "token",
          "type": "address"
        },
        {
          "indexed": false,
          "internalType": "uint256",
          "name": "sellAmount",
          "type": "uint256"
        }
      ],
      "name": "TokenSold",
      "type": "event"
    },
    {
      "inputs": [],
      "name": "bartoken",
      "outputs": [
        {
          "internalType": "contract barToken",
          "name": "",
          "type": "address"
        }
      ],
      "stateMutability": "view",
      "type": "function"
    },
    {
      "inputs": [],
      "name": "buyToken",
      "outputs": [],
      "stateMutability": "payable",
      "type": "function"
    },
    {
      "inputs": [],
      "name": "rate",
      "outputs": [
        {
          "internalType": "uint256",
          "name": "",
          "type": "uint256"
        }
      ],
      "stateMutability": "view",
      "type": "function"
    },
    {
      "inputs": [
        {
          "internalType": "uint256",
          "name": "_sellAmount",
          "type": "uint256"
        }
      ],
      "name": "sellToken",
      "outputs": [],
      "stateMutability": "payable",
      "type": "function"
    }
  ],
  "bytecode": "0x608060405261271060015534801561001657600080fd5b50610906806100266000396000f3fe60806040526004361061003f5760003560e01c80632397e4d7146100445780632c4e722e14610060578063a48217191461008b578063dcab5e2e14610095575b600080fd5b61005e60048036038101906100599190610567565b6100c0565b005b34801561006c57600080fd5b506100756103a2565b60405161008291906106eb565b60405180910390f35b6100936103a8565b005b3480156100a157600080fd5b506100aa6104db565b6040516100b791906106b0565b60405180910390f35b6000600154826100d09190610717565b90508060008054906101000a900473ffffffffffffffffffffffffffffffffffffffff1673ffffffffffffffffffffffffffffffffffffffff1631101561014c576040517f08c379a0000000000000000000000000000000000000000000000000000000008152600401610143906106cb565b60405180910390fd5b8160008054906101000a900473ffffffffffffffffffffffffffffffffffffffff1673ffffffffffffffffffffffffffffffffffffffff166370a08231336040518263ffffffff1660e01b81526004016101a69190610635565b60206040518083038186803b1580156101be57600080fd5b505afa1580156101d2573d6000803e3d6000fd5b505050506040513d601f19601f820116820180604052508101906101f69190610590565b1015610237576040517f08c379a000000000000000000000000000000000000000000000000000000000815260040161022e906106cb565b60405180910390fd5b60008054906101000a900473ffffffffffffffffffffffffffffffffffffffff1673ffffffffffffffffffffffffffffffffffffffff166323b872dd3330846040518463ffffffff1660e01b815260040161029493929190610650565b602060405180830381600087803b1580156102ae57600080fd5b505af11580156102c2573d6000803e3d6000fd5b505050506040513d601f19601f820116820180604052508101906102e6919061053e565b503373ffffffffffffffffffffffffffffffffffffffff166108fc839081150290604051600060405180830381858888f1935050505015801561032d573d6000803e3d6000fd5b503373ffffffffffffffffffffffffffffffffffffffff167fd4cffd6979677853b45a7a17f455188a434e975ba474c5a2613c94beacea537a60008054906101000a900473ffffffffffffffffffffffffffffffffffffffff1683604051610396929190610687565b60405180910390a25050565b60015481565b6000600154346103b89190610748565b905060008054906101000a900473ffffffffffffffffffffffffffffffffffffffff1673ffffffffffffffffffffffffffffffffffffffff1663a9059cbb33836040518363ffffffff1660e01b8152600401610415929190610687565b602060405180830381600087803b15801561042f57600080fd5b505af1158015610443573d6000803e3d6000fd5b505050506040513d601f19601f82011682018060405250810190610467919061053e565b503373ffffffffffffffffffffffffffffffffffffffff167f9b24bd0884170cbce51f9f00df6b3f9aed2231e4086241d1d04687b42afdf7b960008054906101000a900473ffffffffffffffffffffffffffffffffffffffff16836040516104d0929190610687565b60405180910390a250565b60008054906101000a900473ffffffffffffffffffffffffffffffffffffffff1681565b60008151905061050e816108a2565b92915050565b600081359050610523816108b9565b92915050565b600081519050610538816108b9565b92915050565b60006020828403121561055057600080fd5b600061055e848285016104ff565b91505092915050565b60006020828403121561057957600080fd5b600061058784828501610514565b91505092915050565b6000602082840312156105a257600080fd5b60006105b084828501610529565b91505092915050565b6105c2816107ea565b82525050565b6105d1816107a2565b82525050565b6105e0816107fc565b82525050565b60006105f3601483610706565b91507f496e73756666696369656e742062616c616e63650000000000000000000000006000830152602082019050919050565b61062f816107e0565b82525050565b600060208201905061064a60008301846105c8565b92915050565b600060608201905061066560008301866105b9565b61067260208301856105c8565b61067f6040830184610626565b949350505050565b600060408201905061069c60008301856105c8565b6106a96020830184610626565b9392505050565b60006020820190506106c560008301846105d7565b92915050565b600060208201905081810360008301526106e4816105e6565b9050919050565b60006020820190506107006000830184610626565b92915050565b600082825260208201905092915050565b6000610722826107e0565b915061072d836107e0565b92508261073d5761073c610873565b5b828204905092915050565b6000610753826107e0565b915061075e836107e0565b9250817fffffffffffffffffffffffffffffffffffffffffffffffffffffffffffffffff048311821515161561079757610796610844565b5b828202905092915050565b60006107ad826107c0565b9050919050565b60008115159050919050565b600073ffffffffffffffffffffffffffffffffffffffff82169050919050565b6000819050919050565b60006107f582610820565b9050919050565b60006108078261080e565b9050919050565b6000610819826107c0565b9050919050565b600061082b82610832565b9050919050565b600061083d826107c0565b9050919050565b7f4e487b7100000000000000000000000000000000000000000000000000000000600052601160045260246000fd5b7f4e487b7100000000000000000000000000000000000000000000000000000000600052601260045260246000fd5b6108ab816107b4565b81146108b657600080fd5b50565b6108c2816107e0565b81146108cd57600080fd5b5056fea264697066735822122003c5c4fd4112b435a9a66afa0fbf917902da0979c137dc0dffa52b4dee18c87564736f6c63430008000033",
  "linkReferences": {},
  "deployedLinkReferences": {}
}